{
  "_format": "hh-sol-artifact-1",
  "contractName": "VIPMembership",
  "sourceName": "contracts/VIPMembership.sol",
  "abi": [
    {
      "inputs": [],
      "stateMutability": "nonpayable",
      "type": "constructor"
    },
    {
      "anonymous": false,
      "inputs": [
        {
          "indexed": true,
          "internalType": "address",
          "name": "user",
          "type": "address"
        },
        {
          "indexed": false,
          "internalType": "uint256",
          "name": "amount",
          "type": "uint256"
        }
      ],
      "name": "VIPPurchased",
      "type": "event"
    },
    {
      "inputs": [
        {
          "internalType": "address",
          "name": "user",
          "type": "address"
        }
      ],
      "name": "cancelVIP",
      "outputs": [],
      "stateMutability": "nonpayable",
      "type": "function"
    },
    {
      "inputs": [
        {
          "internalType": "address",
          "name": "user",
          "type": "address"
        }
      ],
      "name": "checkVIP",
      "outputs": [
        {
          "internalType": "bool",
          "name": "",
          "type": "bool"
        }
      ],
      "stateMutability": "view",
      "type": "function"
    },
    {
      "inputs": [
        {
          "internalType": "address",
          "name": "",
          "type": "address"
        }
      ],
      "name": "isVip",
      "outputs": [
        {
          "internalType": "bool",
          "name": "",
          "type": "bool"
        }
      ],
      "stateMutability": "view",
      "type": "function"
    },
    {
      "inputs": [],
      "name": "owner",
      "outputs": [
        {
          "internalType": "address",
          "name": "",
          "type": "address"
        }
      ],
      "stateMutability": "view",
      "type": "function"
    },
    {
      "inputs": [],
      "name": "price",
      "outputs": [
        {
          "internalType": "uint256",
          "name": "",
          "type": "uint256"
        }
      ],
      "stateMutability": "view",
      "type": "function"
    },
    {
      "inputs": [],
      "name": "purchaseVIP",
      "outputs": [],
      "stateMutability": "payable",
      "type": "function"
    }
  ],
  "bytecode": "0x6080604052670de0b6b3a7640000600255348015601b57600080fd5b50336000806101000a81548173ffffffffffffffffffffffffffffffffffffffff021916908373ffffffffffffffffffffffffffffffffffffffff16021790555061082b8061006b6000396000f3fe6080604052600436106100555760003560e01c806384203f4b1461005a5780638da5cb5b14610097578063a035b1fe146100c2578063efe9ded5146100ed578063f9f7f0a11461012a578063fdf01bae14610134575b600080fd5b34801561006657600080fd5b50610081600480360381019061007c919061054d565b61015d565b60405161008e9190610595565b60405180910390f35b3480156100a357600080fd5b506100ac61017d565b6040516100b991906105bf565b60405180910390f35b3480156100ce57600080fd5b506100d76101a1565b6040516100e491906105f3565b60405180910390f35b3480156100f957600080fd5b50610114600480360381019061010f919061054d565b6101a7565b6040516101219190610595565b60405180910390f35b6101326101fd565b005b34801561014057600080fd5b5061015b6004803603810190610156919061054d565b610375565b005b60016020528060005260406000206000915054906101000a900460ff1681565b60008054906101000a900473ffffffffffffffffffffffffffffffffffffffff1681565b60025481565b6000600160008373ffffffffffffffffffffffffffffffffffffffff1673ffffffffffffffffffffffffffffffffffffffff16815260200190815260200160002060009054906101000a900460ff169050919050565b6002543414610241576040517f08c379a00000000000000000000000000000000000000000000000000000000081526004016102389061066b565b60405180910390fd5b600160003373ffffffffffffffffffffffffffffffffffffffff1673ffffffffffffffffffffffffffffffffffffffff16815260200190815260200160002060009054906101000a900460ff16156102ce576040517f08c379a00000000000000000000000000000000000000000000000000000000081526004016102c5906106d7565b60405180910390fd5b60018060003373ffffffffffffffffffffffffffffffffffffffff1673ffffffffffffffffffffffffffffffffffffffff16815260200190815260200160002060006101000a81548160ff0219169083151502179055503373ffffffffffffffffffffffffffffffffffffffff167f84b71cb772236b47eb39e7a2b985800a6363faeab681f9f78d7f4a3c3701a74b3460405161036b91906105f3565b60405180910390a2565b60008054906101000a900473ffffffffffffffffffffffffffffffffffffffff1673ffffffffffffffffffffffffffffffffffffffff163373ffffffffffffffffffffffffffffffffffffffff1614610403576040517f08c379a00000000000000000000000000000000000000000000000000000000081526004016103fa90610769565b60405180910390fd5b600160008273ffffffffffffffffffffffffffffffffffffffff1673ffffffffffffffffffffffffffffffffffffffff16815260200190815260200160002060009054906101000a900460ff1661048f576040517f08c379a0000000000000000000000000000000000000000000000000000000008152600401610486906107d5565b60405180910390fd5b6000600160008373ffffffffffffffffffffffffffffffffffffffff1673ffffffffffffffffffffffffffffffffffffffff16815260200190815260200160002060006101000a81548160ff02191690831515021790555050565b600080fd5b600073ffffffffffffffffffffffffffffffffffffffff82169050919050565b600061051a826104ef565b9050919050565b61052a8161050f565b811461053557600080fd5b50565b60008135905061054781610521565b92915050565b600060208284031215610563576105626104ea565b5b600061057184828501610538565b91505092915050565b60008115159050919050565b61058f8161057a565b82525050565b60006020820190506105aa6000830184610586565b92915050565b6105b98161050f565b82525050565b60006020820190506105d460008301846105b0565b92915050565b6000819050919050565b6105ed816105da565b82525050565b600060208201905061060860008301846105e4565b92915050565b600082825260208201905092915050565b7f496e636f727265637420616d6f756e74206f66204554482073656e7400000000600082015250565b6000610655601c8361060e565b91506106608261061f565b602082019050919050565b6000602082019050818103600083015261068481610648565b9050919050565b7f596f752061726520616c72656164792061205649500000000000000000000000600082015250565b60006106c160158361060e565b91506106cc8261068b565b602082019050919050565b600060208201905081810360008301526106f0816106b4565b9050919050565b7f4f6e6c7920746865206f776e65722063616e2063616e63656c2056495020737460008201527f6174757300000000000000000000000000000000000000000000000000000000602082015250565b600061075360248361060e565b915061075e826106f7565b604082019050919050565b6000602082019050818103600083015261078281610746565b9050919050565b7f55736572206973206e6f74206120564950000000000000000000000000000000600082015250565b60006107bf60118361060e565b91506107ca82610789565b602082019050919050565b600060208201905081810360008301526107ee816107b2565b905091905056fea2646970667358221220fbfd0a2f76aa49aad722e38525872e6bb92e09e859cd15190e29d23a18f0392b64736f6c634300081c0033",
  "linkReferences": {},
  "deployedLinkReferences": {}
}